{
  "address": "0xc1010cF970b5F4BbF82a97B5230398E3cE93f69d",
  "abi": [
    {
      "inputs": [],
      "stateMutability": "nonpayable",
      "type": "constructor"
    },
    {
      "inputs": [],
      "name": "EnforcedPause",
      "type": "error"
    },
    {
      "inputs": [],
      "name": "ExpectedPause",
      "type": "error"
    },
    {
      "inputs": [
        {
          "internalType": "address",
          "name": "owner",
          "type": "address"
        }
      ],
      "name": "OwnableInvalidOwner",
      "type": "error"
    },
    {
      "inputs": [
        {
          "internalType": "address",
          "name": "account",
          "type": "address"
        }
      ],
      "name": "OwnableUnauthorizedAccount",
      "type": "error"
    },
    {
      "inputs": [],
      "name": "ReentrancyGuardReentrantCall",
      "type": "error"
    },
    {
      "anonymous": false,
      "inputs": [
        {
          "indexed": true,
          "internalType": "address",
          "name": "collectionAddress",
          "type": "address"
        },
        {
          "indexed": false,
          "internalType": "string",
          "name": "name",
          "type": "string"
        },
        {
          "indexed": false,
          "internalType": "string",
          "name": "symbol",
          "type": "string"
        },
        {
          "indexed": true,
          "internalType": "address",
          "name": "owner",
          "type": "address"
        }
      ],
      "name": "CollectionCreated",
      "type": "event"
    },
    {
      "anonymous": false,
      "inputs": [
        {
          "indexed": true,
          "internalType": "address",
          "name": "collectionAddress",
          "type": "address"
        },
        {
          "indexed": true,
          "internalType": "uint256",
          "name": "tokenId",
          "type": "uint256"
        },
        {
          "indexed": false,
          "internalType": "address",
          "name": "seller",
          "type": "address"
        },
        {
          "indexed": false,
          "internalType": "address",
          "name": "owner",
          "type": "address"
        },
        {
          "indexed": false,
          "internalType": "uint256",
          "name": "price",
          "type": "uint256"
        }
      ],
      "name": "MarketItemCreated",
      "type": "event"
    },
    {
      "anonymous": false,
      "inputs": [
        {
          "indexed": true,
          "internalType": "address",
          "name": "collectionAddress",
          "type": "address"
        },
        {
          "indexed": true,
          "internalType": "uint256",
          "name": "tokenId",
          "type": "uint256"
        },
        {
          "indexed": false,
          "internalType": "address",
          "name": "seller",
          "type": "address"
        },
        {
          "indexed": false,
          "internalType": "address",
          "name": "owner",
          "type": "address"
        },
        {
          "indexed": false,
          "internalType": "uint256",
          "name": "price",
          "type": "uint256"
        }
      ],
      "name": "MarketItemSold",
      "type": "event"
    },
    {
      "anonymous": false,
      "inputs": [
        {
          "indexed": true,
          "internalType": "address",
          "name": "collectionAddress",
          "type": "address"
        },
        {
          "indexed": true,
          "internalType": "address",
          "name": "buyer",
          "type": "address"
        },
        {
          "indexed": false,
          "internalType": "uint256",
          "name": "price",
          "type": "uint256"
        }
      ],
      "name": "OfferCreated",
      "type": "event"
    },
    {
      "anonymous": false,
      "inputs": [
        {
          "indexed": true,
          "internalType": "address",
          "name": "previousOwner",
          "type": "address"
        },
        {
          "indexed": true,
          "internalType": "address",
          "name": "newOwner",
          "type": "address"
        }
      ],
      "name": "OwnershipTransferred",
      "type": "event"
    },
    {
      "anonymous": false,
      "inputs": [
        {
          "indexed": false,
          "internalType": "address",
          "name": "account",
          "type": "address"
        }
      ],
      "name": "Paused",
      "type": "event"
    },
    {
      "anonymous": false,
      "inputs": [
        {
          "indexed": false,
          "internalType": "address",
          "name": "account",
          "type": "address"
        }
      ],
      "name": "Unpaused",
      "type": "event"
    },
    {
      "inputs": [
        {
          "internalType": "address",
          "name": "collectionAddress",
          "type": "address"
        },
        {
          "internalType": "uint256",
          "name": "tokenId",
          "type": "uint256"
        },
        {
          "internalType": "uint256",
          "name": "startingPrice",
          "type": "uint256"
        },
        {
          "internalType": "uint256",
          "name": "duration",
          "type": "uint256"
        }
      ],
      "name": "createAuction",
      "outputs": [],
      "stateMutability": "nonpayable",
      "type": "function"
    },
    {
      "inputs": [
        {
          "internalType": "string",
          "name": "name",
          "type": "string"
        },
        {
          "internalType": "string",
          "name": "symbol",
          "type": "string"
        },
        {
          "internalType": "string",
          "name": "baseURI",
          "type": "string"
        }
      ],
      "name": "createCollection",
      "outputs": [
        {
          "internalType": "address",
          "name": "",
          "type": "address"
        }
      ],
      "stateMutability": "nonpayable",
      "type": "function"
    },
    {
      "inputs": [
        {
          "internalType": "address",
          "name": "collectionAddress",
          "type": "address"
        },
        {
          "internalType": "uint256",
          "name": "tokenId",
          "type": "uint256"
        },
        {
          "internalType": "uint256",
          "name": "price",
          "type": "uint256"
        }
      ],
      "name": "createMarketItem",
      "outputs": [],
      "stateMutability": "payable",
      "type": "function"
    },
    {
      "inputs": [
        {
          "internalType": "address",
          "name": "collectionAddress",
          "type": "address"
        },
        {
          "internalType": "uint256",
          "name": "tokenId",
          "type": "uint256"
        }
      ],
      "name": "createMarketSale",
      "outputs": [],
      "stateMutability": "payable",
      "type": "function"
    },
    {
      "inputs": [
        {
          "internalType": "address",
          "name": "collectionAddress",
          "type": "address"
        }
      ],
      "name": "fetchCollectionItems",
      "outputs": [
        {
          "components": [
            {
              "internalType": "uint256",
              "name": "tokenId",
              "type": "uint256"
            },
            {
              "internalType": "address",
              "name": "nftContract",
              "type": "address"
            },
            {
              "internalType": "address",
              "name": "seller",
              "type": "address"
            },
            {
              "internalType": "address",
              "name": "owner",
              "type": "address"
            },
            {
              "internalType": "uint256",
              "name": "price",
              "type": "uint256"
            },
            {
              "internalType": "bool",
              "name": "isOnSale",
              "type": "bool"
            },
            {
              "internalType": "uint256",
              "name": "auctionEndTime",
              "type": "uint256"
            },
            {
              "internalType": "address",
              "name": "highestBidder",
              "type": "address"
            },
            {
              "internalType": "uint256",
              "name": "highestBid",
              "type": "uint256"
            },
            {
              "internalType": "bool",
              "name": "isAuction",
              "type": "bool"
            }
          ],
          "internalType": "struct NFTMarketplace.MarketItem[]",
          "name": "",
          "type": "tuple[]"
        }
      ],
      "stateMutability": "view",
      "type": "function"
    },
    {
      "inputs": [],
      "name": "fetchCollections",
      "outputs": [
        {
          "components": [
            {
              "internalType": "address",
              "name": "collectionAddress",
              "type": "address"
            },
            {
              "internalType": "string",
              "name": "name",
              "type": "string"
            },
            {
              "internalType": "string",
              "name": "symbol",
              "type": "string"
            },
            {
              "internalType": "address",
              "name": "owner",
              "type": "address"
            },
            {
              "internalType": "bool",
              "name": "isActive",
              "type": "bool"
            },
            {
              "internalType": "uint256",
              "name": "createdAt",
              "type": "uint256"
            }
          ],
          "internalType": "struct NFTMarketplace.Collection[]",
          "name": "",
          "type": "tuple[]"
        }
      ],
      "stateMutability": "view",
      "type": "function"
    },
    {
      "inputs": [
        {
          "internalType": "address",
          "name": "collectionAddress",
          "type": "address"
        }
      ],
      "name": "getCollectionDetails",
      "outputs": [
        {
          "components": [
            {
              "internalType": "address",
              "name": "collectionAddress",
              "type": "address"
            },
            {
              "internalType": "string",
              "name": "name",
              "type": "string"
            },
            {
              "internalType": "string",
              "name": "symbol",
              "type": "string"
            },
            {
              "internalType": "address",
              "name": "owner",
              "type": "address"
            },
            {
              "internalType": "bool",
              "name": "isActive",
              "type": "bool"
            },
            {
              "internalType": "uint256",
              "name": "createdAt",
              "type": "uint256"
            }
          ],
          "internalType": "struct NFTMarketplace.Collection",
          "name": "",
          "type": "tuple"
        }
      ],
      "stateMutability": "view",
      "type": "function"
    },
    {
      "inputs": [],
      "name": "listingFee",
      "outputs": [
        {
          "internalType": "uint256",
          "name": "",
          "type": "uint256"
        }
      ],
      "stateMutability": "view",
      "type": "function"
    },
    {
      "inputs": [
        {
          "internalType": "address",
          "name": "collectionAddress",
          "type": "address"
        },
        {
          "internalType": "uint256",
          "name": "tokenId",
          "type": "uint256"
        }
      ],
      "name": "makeOffer",
      "outputs": [],
      "stateMutability": "payable",
      "type": "function"
    },
    {
      "inputs": [],
      "name": "owner",
      "outputs": [
        {
          "internalType": "address",
          "name": "",
          "type": "address"
        }
      ],
      "stateMutability": "view",
      "type": "function"
    },
    {
      "inputs": [],
      "name": "paused",
      "outputs": [
        {
          "internalType": "bool",
          "name": "",
          "type": "bool"
        }
      ],
      "stateMutability": "view",
      "type": "function"
    },
    {
      "inputs": [
        {
          "internalType": "address",
          "name": "collectionAddress",
          "type": "address"
        },
        {
          "internalType": "uint256",
          "name": "tokenId",
          "type": "uint256"
        }
      ],
      "name": "placeBid",
      "outputs": [],
      "stateMutability": "payable",
      "type": "function"
    },
    {
      "inputs": [],
      "name": "renounceOwnership",
      "outputs": [],
      "stateMutability": "nonpayable",
      "type": "function"
    },
    {
      "inputs": [
        {
          "internalType": "address",
          "name": "newOwner",
          "type": "address"
        }
      ],
      "name": "transferOwnership",
      "outputs": [],
      "stateMutability": "nonpayable",
      "type": "function"
    }
  ],
  "transactionHash": "0xa0cd8d5da909a476d46219b6f65fec720a41b966fd82bf03224d0a1b4d1cfeac",
  "args": [],
  "numDeployments": 2,
  "solcInputHash": "f8a687513f60f07922b44fb620cc69e2",
  "bytecode": "0x60806040526658d15e17628000600855348015601a57600080fd5b5060016000819055805460ff191690553380604f57604051631e4fbdf760e01b81526000600482015260240160405180910390fd5b605681605b565b5060b5565b600180546001600160a01b03838116610100818102610100600160a81b031985161790945560405193909204169182907f8be0079c531659141344cd1fd0a4f28419497f9722a3daafe3b4186f6b6457e090600090a35050565b6135fe806100c46000396000f3fe6080604052600436106100dd5760003560e01c80638da5cb5b1161007f578063d2ead4cb11610059578063d2ead4cb14610233578063d98b9bb514610255578063ece86c2114610268578063f2fde38b1461028857600080fd5b80638da5cb5b146101d6578063b2a4706e1461020d578063c23b139e1461022057600080fd5b80635c975abb116100bb5780635c975abb1461015a57806361beb1d71461017d5780636a1b7ecc1461019d578063715018a6146101c157600080fd5b806334deb86d146100e257806337c883b81461011857806358eb2df514610145575b600080fd5b3480156100ee57600080fd5b506101026100fd36600461164a565b6102a8565b60405161010f9190611727565b60405180910390f35b34801561012457600080fd5b5061013861013336600461164a565b610488565b60405161010f919061173a565b61015861015336600461183c565b6106d6565b005b34801561016657600080fd5b5060015460ff16604051901515815260200161010f565b34801561018957600080fd5b5061015861019836600461186f565b610a87565b3480156101a957600080fd5b506101b360085481565b60405190815260200161010f565b3480156101cd57600080fd5b50610158610b89565b3480156101e257600080fd5b5060015461010090046001600160a01b03165b6040516001600160a01b03909116815260200161010f565b61015861021b3660046118a8565b610b9d565b61015861022e3660046118a8565b610d69565b34801561023f57600080fd5b50610248610f81565b60405161010f91906118d2565b6101586102633660046118a8565b6111bf565b34801561027457600080fd5b506101f56102833660046119dc565b61133a565b34801561029457600080fd5b506101586102a336600461164a565b6114e2565b6102b06115d7565b6001600160a01b038216600090815260026020526040902060030154600160a01b900460ff166102fb5760405162461bcd60e51b81526004016102f290611a70565b60405180910390fd5b6001600160a01b03808316600090815260026020908152604091829020825160c08101909352805490931682526001830180549293929184019161033e90611aa7565b80601f016020809104026020016040519081016040528092919081815260200182805461036a90611aa7565b80156103b75780601f1061038c576101008083540402835291602001916103b7565b820191906000526020600020905b81548152906001019060200180831161039a57829003601f168201915b505050505081526020016002820180546103d090611aa7565b80601f01602080910402602001604051908101604052809291908181526020018280546103fc90611aa7565b80156104495780601f1061041e57610100808354040283529160200191610449565b820191906000526020600020905b81548152906001019060200180831161042c57829003601f168201915b505050918352505060038201546001600160a01b0381166020830152600160a01b900460ff161515604082015260049091015460609091015292915050565b6001600160a01b038116600090815260026020526040902060030154606090600160a01b900460ff166104cd5760405162461bcd60e51b81526004016102f290611a70565b6001600160a01b03821660009081526005602090815260408083208054825181850281018501909352808352919290919083018282801561052d57602002820191906000526020600020905b815481526020019060010190808311610519575b5050505050905060008151905060008167ffffffffffffffff81111561055557610555611937565b6040519080825280602002602001820160405280156105d457816020015b604080516101408101825260008082526020808301829052928201819052606082018190526080820181905260a0820181905260c0820181905260e08201819052610100820181905261012082015282526000199092019101816105735790505b50905060005b828110156106cd5760008482815181106105f6576105f6611ae1565b6020908102919091018101516001600160a01b03808a1660009081526004808552604080832085845286529182902082516101408101845281548152600182015485169681019690965260028101548416928601929092526003820154831660608601528101546080850152600581015460ff908116151560a0860152600682015460c0860152600782015490921660e085015260088101546101008501526009015416151561012083015284519092508490849081106106b9576106b9611ae1565b6020908102919091010152506001016105da565b50949350505050565b6106de611520565b6001600160a01b038316600090815260026020526040902060030154600160a01b900460ff166107205760405162461bcd60e51b81526004016102f290611a70565b600081116107705760405162461bcd60e51b815260206004820152601f60248201527f5072696365206d7573742062652067726561746572207468616e207a65726f0060448201526064016102f2565b60085434146107b85760405162461bcd60e51b81526020600482015260146024820152734d75737420706179206c697374696e672066656560601b60448201526064016102f2565b604051806101400160405280838152602001846001600160a01b03168152602001336001600160a01b0316815260200160006001600160a01b031681526020018281526020016001151581526020016000815260200160006001600160a01b03168152602001600081526020016000151581525060046000856001600160a01b03166001600160a01b0316815260200190815260200160002060008481526020019081526020016000206000820151816000015560208201518160010160006101000a8154816001600160a01b0302191690836001600160a01b0316021790555060408201518160020160006101000a8154816001600160a01b0302191690836001600160a01b0316021790555060608201518160030160006101000a8154816001600160a01b0302191690836001600160a01b031602179055506080820151816004015560a08201518160050160006101000a81548160ff02191690831515021790555060c0820151816006015560e08201518160070160006101000a8154816001600160a01b0302191690836001600160a01b0316021790555061010082015181600801556101208201518160090160006101000a81548160ff02191690831515021790555090505060056000846001600160a01b03166001600160a01b03168152602001908152602001600020829080600181540180825580915050600190039060005260206000200160009091909190915055826001600160a01b03166323b872dd3330856040518463ffffffff1660e01b81526004016109ff93929190611af7565b600060405180830381600087803b158015610a1957600080fd5b505af1158015610a2d573d6000803e3d6000fd5b5050505081836001600160a01b03167f4e87d65c4baed28b185aa1f2f583850f4140e7ee01ee27c4e06f622d085b1bfc33600085604051610a7093929190611af7565b60405180910390a3610a826001600055565b505050565b610a8f611520565b6001600160a01b038085166000908152600460209081526040808320878452909152902060028101549091163314610b095760405162461bcd60e51b815260206004820152601d60248201527f4f6e6c792073656c6c65722063616e2073746172742061756374696f6e00000060448201526064016102f2565b600981015460ff1615610b535760405162461bcd60e51b815260206004820152601260248201527120b63932b0b23c9037b71030bab1ba34b7b760711b60448201526064016102f2565b60098101805460ff1916600117905560048101839055610b738242611b1b565b600690910155610b836001600055565b50505050565b610b9161154a565b610b9b600061157d565b565b610ba5611520565b6001600160a01b03821660009081526004602090815260408083208484529091529020600581015460ff16610c0f5760405162461bcd60e51b815260206004820152601060248201526f4974656d206e6f74206f6e2073616c6560801b60448201526064016102f2565b600981015460ff1615610c595760405162461bcd60e51b815260206004820152601260248201527124ba32b69034b99037b71030bab1ba34b7b760711b60448201526064016102f2565b60003411610ca95760405162461bcd60e51b815260206004820152601f60248201527f4f66666572206d7573742062652067726561746572207468616e207a65726f0060448201526064016102f2565b6001600160a01b03838116600081815260076020908152604080832087845282528083208151606081018352338082523482860181815242848701908152855460018082018855968a52988890209451600390990290940180546001600160a01b03191698909a1697909717895595519288019290925551600290960195909555519182527f1819ba14baa7481a7b236a7888df8e0a32271ee6d12514a8c92da9f9bba73a6791015b60405180910390a350610d656001600055565b5050565b610d71611520565b6001600160a01b03821660009081526004602090815260408083208484529091529020600581015460ff16610dde5760405162461bcd60e51b81526020600482015260136024820152724974656d206973206e6f74206f6e2073616c6560681b60448201526064016102f2565b600981015460ff1615610e285760405162461bcd60e51b815260206004820152601260248201527124ba32b69034b99037b71030bab1ba34b7b760711b60448201526064016102f2565b80600401543414610e7b5760405162461bcd60e51b815260206004820152601e60248201527f506c65617365207375626d6974207468652061736b696e67207072696365000060448201526064016102f2565b60058101805460ff191690556003810180546001600160a01b0319163317905560028101546040516001600160a01b0391909116903480156108fc02916000818181858888f19350505050158015610ed7573d6000803e3d6000fd5b506040516323b872dd60e01b81526001600160a01b038416906323b872dd90610f0890309033908790600401611af7565b600060405180830381600087803b158015610f2257600080fd5b505af1158015610f36573d6000803e3d6000fd5b50505050600281015460405183916001600160a01b03868116927f51ae5913afbfcae9abfe6b7888d00fe117a1b0e81f6c88017bccd98b6b4877d592610d5292169033903490611af7565b60035460609060008167ffffffffffffffff811115610fa257610fa2611937565b604051908082528060200260200182016040528015610fdb57816020015b610fc86115d7565b815260200190600190039081610fc05790505b50905060005b828110156111b857600060038281548110610ffe57610ffe611ae1565b60009182526020808320909101546001600160a01b0390811680845260028352604093849020845160c081019095528054909216845260018201805491955091928401919061104c90611aa7565b80601f016020809104026020016040519081016040528092919081815260200182805461107890611aa7565b80156110c55780601f1061109a576101008083540402835291602001916110c5565b820191906000526020600020905b8154815290600101906020018083116110a857829003601f168201915b505050505081526020016002820180546110de90611aa7565b80601f016020809104026020016040519081016040528092919081815260200182805461110a90611aa7565b80156111575780601f1061112c57610100808354040283529160200191611157565b820191906000526020600020905b81548152906001019060200180831161113a57829003601f168201915b505050918352505060038201546001600160a01b0381166020830152600160a01b900460ff161515604082015260049091015460609091015283518490849081106111a4576111a4611ae1565b602090810291909101015250600101610fe1565b5092915050565b6111c7611520565b6001600160a01b03821660009081526004602090815260408083208484529091529020600981015460ff1661122f5760405162461bcd60e51b815260206004820152600e60248201526d2737ba1030b71030bab1ba34b7b760911b60448201526064016102f2565b806006015442106112725760405162461bcd60e51b815260206004820152600d60248201526c105d58dd1a5bdb88195b991959609a1b60448201526064016102f2565b806008015434116112b35760405162461bcd60e51b815260206004820152600b60248201526a42696420746f6f206c6f7760a81b60448201526064016102f2565b60078101546001600160a01b0316156113155760088101546001600160a01b038085166000908152600660209081526040808320878452825280832060078701549094168352929052908120805490919061130f908490611b1b565b90915550505b6007810180546001600160a01b0319163317905534600890910155610d656001600055565b6000803390506000858585308560405161135390611621565b611361959493929190611b42565b604051809103906000f08015801561137d573d6000803e3d6000fd5b506040805160c0810182526001600160a01b0383811680835260208084018c81528486018c905288841660608601526001608086018190524260a08701526000938452600290925294909120835181546001600160a01b03191693169290921782559251939450849391929091908201906113f89082611bef565b506040820151600282019061140d9082611bef565b5060608201516003808301805460808601511515600160a01b026001600160a81b03199091166001600160a01b039485161717905560a09093015160049092019190915581546001810183556000929092527fc2575a0e9e593c00f959f8c92f12db2869c3395a3b0502d05e2516446f71f85b90910180548383166001600160a01b0319919091168117909155604051918516917f6974864ab24c795f57c207a650ae6763287c14a1c55fedc8506acb02796eb1a5906114d0908b908b90611cae565b60405180910390a39695505050505050565b6114ea61154a565b6001600160a01b03811661151457604051631e4fbdf760e01b8152600060048201526024016102f2565b61151d8161157d565b50565b60026000540361154357604051633ee5aeb560e01b815260040160405180910390fd5b6002600055565b6001546001600160a01b03610100909104163314610b9b5760405163118cdaa760e01b81523360048201526024016102f2565b600180546001600160a01b03838116610100818102610100600160a81b031985161790945560405193909204169182907f8be0079c531659141344cd1fd0a4f28419497f9722a3daafe3b4186f6b6457e090600090a35050565b6040518060c0016040528060006001600160a01b03168152602001606081526020016060815260200160006001600160a01b03168152602001600015158152602001600081525090565b6118ec80611cdd83390190565b80356001600160a01b038116811461164557600080fd5b919050565b60006020828403121561165c57600080fd5b6116658261162e565b9392505050565b6000815180845260005b8181101561169257602081850181015186830182015201611676565b506000602082860101526020601f19601f83011685010191505092915050565b60018060a01b0381511682526000602082015160c060208501526116d960c085018261166c565b9050604083015184820360408601526116f2828261166c565b6060858101516001600160a01b03169087015260808086015115159087015260a0948501519590940194909452509092915050565b60208152600061166560208301846116b2565b602080825282518282018190526000918401906040840190835b8181101561183157835180518452602081015161177c60208601826001600160a01b03169052565b50604081015161179760408601826001600160a01b03169052565b5060608101516117b260608601826001600160a01b03169052565b506080810151608085015260a08101516117d060a086018215159052565b5060c081015160c085015260e08101516117f560e08601826001600160a01b03169052565b50610100810151610100850152610120810151905061181961012085018215159052565b50602093909301926101409290920191600101611754565b509095945050505050565b60008060006060848603121561185157600080fd5b61185a8461162e565b95602085013595506040909401359392505050565b6000806000806080858703121561188557600080fd5b61188e8561162e565b966020860135965060408601359560600135945092505050565b600080604083850312156118bb57600080fd5b6118c48361162e565b946020939093013593505050565b6000602082016020835280845180835260408501915060408160051b86010192506020860160005b8281101561192b57603f198786030184526119168583516116b2565b945060209384019391909101906001016118fa565b50929695505050505050565b634e487b7160e01b600052604160045260246000fd5b600082601f83011261195e57600080fd5b813567ffffffffffffffff81111561197857611978611937565b604051601f8201601f19908116603f0116810167ffffffffffffffff811182821017156119a7576119a7611937565b6040528181528382016020018510156119bf57600080fd5b816020850160208301376000918101602001919091529392505050565b6000806000606084860312156119f157600080fd5b833567ffffffffffffffff811115611a0857600080fd5b611a148682870161194d565b935050602084013567ffffffffffffffff811115611a3157600080fd5b611a3d8682870161194d565b925050604084013567ffffffffffffffff811115611a5a57600080fd5b611a668682870161194d565b9150509250925092565b60208082526019908201527f436f6c6c656374696f6e20646f6573206e6f7420657869737400000000000000604082015260600190565b600181811c90821680611abb57607f821691505b602082108103611adb57634e487b7160e01b600052602260045260246000fd5b50919050565b634e487b7160e01b600052603260045260246000fd5b6001600160a01b039384168152919092166020820152604081019190915260600190565b80820180821115611b3c57634e487b7160e01b600052601160045260246000fd5b92915050565b60a081526000611b5560a083018861166c565b8281036020840152611b67818861166c565b90508281036040840152611b7b818761166c565b6001600160a01b0395861660608501529390941660809092019190915250949350505050565b601f821115610a8257806000526020600020601f840160051c81016020851015611bc85750805b601f840160051c820191505b81811015611be85760008155600101611bd4565b5050505050565b815167ffffffffffffffff811115611c0957611c09611937565b611c1d81611c178454611aa7565b84611ba1565b6020601f821160018114611c515760008315611c395750848201515b600019600385901b1c1916600184901b178455611be8565b600084815260208120601f198516915b82811015611c815787850151825560209485019460019092019101611c61565b5084821015611c9f5786840151600019600387901b60f8161c191681555b50505050600190811b01905550565b604081526000611cc1604083018561166c565b8281036020840152611cd3818561166c565b9594505050505056fe608060405234801561001057600080fd5b506040516118ec3803806118ec83398101604081905261002f916101e4565b808585600061003e8382610324565b50600161004b8282610324565b5050506001600160a01b03811661007c57604051631e4fbdf760e01b81526000600482015260240160405180910390fd5b610085816100bd565b5060096100928482610324565b5050600a80546001600160a01b0319166001600160a01b0392909216919091179055506103e2915050565b600780546001600160a01b038381166001600160a01b0319831681179093556040519116919082907f8be0079c531659141344cd1fd0a4f28419497f9722a3daafe3b4186f6b6457e090600090a35050565b634e487b7160e01b600052604160045260246000fd5b600082601f83011261013657600080fd5b81516001600160401b0381111561014f5761014f61010f565b604051601f8201601f19908116603f011681016001600160401b038111828210171561017d5761017d61010f565b60405281815283820160200185101561019557600080fd5b60005b828110156101b457602081860181015183830182015201610198565b506000918101602001919091529392505050565b80516001600160a01b03811681146101df57600080fd5b919050565b600080600080600060a086880312156101fc57600080fd5b85516001600160401b0381111561021257600080fd5b61021e88828901610125565b602088015190965090506001600160401b0381111561023c57600080fd5b61024888828901610125565b604088015190955090506001600160401b0381111561026657600080fd5b61027288828901610125565b935050610281606087016101c8565b915061028f608087016101c8565b90509295509295909350565b600181811c908216806102af57607f821691505b6020821081036102cf57634e487b7160e01b600052602260045260246000fd5b50919050565b601f82111561031f57806000526020600020601f840160051c810160208510156102fc5750805b601f840160051c820191505b8181101561031c5760008155600101610308565b50505b505050565b81516001600160401b0381111561033d5761033d61010f565b6103518161034b845461029b565b846102d5565b6020601f821160018114610385576000831561036d5750848201515b600019600385901b1c1916600184901b17845561031c565b600084815260208120601f198516915b828110156103b55787850151825560209485019460019092019101610395565b50848210156103d35786840151600019600387901b60f8161c191681555b50505050600190811b01905550565b6114fb806103f16000396000f3fe608060405234801561001057600080fd5b506004361061012c5760003560e01c8063715018a6116100ad578063c87b56dd11610071578063c87b56dd1461025b578063d0def5211461026e578063daa17f4914610281578063e985e9c514610294578063f2fde38b146102a757600080fd5b8063715018a6146102145780638da5cb5b1461021c57806395d89b411461022d578063a22cb46514610235578063b88d4fde1461024857600080fd5b806323b872dd116100f457806323b872dd146101c057806342842e0e146101d35780636352211e146101e65780636c0360eb146101f957806370a082311461020157600080fd5b806301ffc9a71461013157806306fdde0314610159578063081812fc1461016e578063095ea7b31461019957806318160ddd146101ae575b600080fd5b61014461013f366004610fc1565b6102ba565b60405190151581526020015b60405180910390f35b6101616102e5565b604051610150919061102e565b61018161017c366004611041565b610377565b6040516001600160a01b039091168152602001610150565b6101ac6101a7366004611076565b6103a0565b005b6008545b604051908152602001610150565b6101ac6101ce3660046110a0565b6103af565b6101ac6101e13660046110a0565b61043f565b6101816101f4366004611041565b61045f565b61016161046a565b6101b261020f3660046110dd565b6104f8565b6101ac610540565b6007546001600160a01b0316610181565b610161610554565b6101ac6102433660046110f8565b610563565b6101ac6102563660046111c4565b61056e565b610161610269366004611041565b610586565b6101b261027c366004611240565b610697565b600a54610181906001600160a01b031681565b6101446102a23660046112a2565b6106d4565b6101ac6102b53660046110dd565b610702565b60006001600160e01b03198216632483248360e11b14806102df57506102df82610740565b92915050565b6060600080546102f4906112d5565b80601f0160208091040260200160405190810160405280929190818152602001828054610320906112d5565b801561036d5780601f106103425761010080835404028352916020019161036d565b820191906000526020600020905b81548152906001019060200180831161035057829003601f168201915b5050505050905090565b600061038282610790565b506000828152600460205260409020546001600160a01b03166102df565b6103ab8282336107c9565b5050565b6001600160a01b0382166103de57604051633250574960e11b8152600060048201526024015b60405180910390fd5b60006103eb8383336107d6565b9050836001600160a01b0316816001600160a01b031614610439576040516364283d7b60e01b81526001600160a01b03808616600483015260248201849052821660448201526064016103d5565b50505050565b61045a8383836040518060200160405280600081525061056e565b505050565b60006102df82610790565b60098054610477906112d5565b80601f01602080910402602001604051908101604052809291908181526020018280546104a3906112d5565b80156104f05780601f106104c5576101008083540402835291602001916104f0565b820191906000526020600020905b8154815290600101906020018083116104d357829003601f168201915b505050505081565b60006001600160a01b038216610524576040516322718ad960e21b8152600060048201526024016103d5565b506001600160a01b031660009081526003602052604090205490565b6105486108cf565b61055260006108fc565b565b6060600180546102f4906112d5565b6103ab33838361094e565b6105798484846103af565b61043933858585856109ed565b606061059182610790565b50600082815260066020526040812080546105ab906112d5565b80601f01602080910402602001604051908101604052809291908181526020018280546105d7906112d5565b80156106245780601f106105f957610100808354040283529160200191610624565b820191906000526020600020905b81548152906001019060200180831161060757829003601f168201915b50505050509050600061064260408051602081019091526000815290565b90508051600003610654575092915050565b81511561068657808260405160200161066e92919061130f565b60405160208183030381529060405292505050919050565b61068f84610b18565b949350505050565b60006106a16108cf565b600880549060006106b18361133e565b90915550506008546106c38482610b8c565b6106cd8184610ba6565b9392505050565b6001600160a01b03918216600090815260056020908152604080832093909416825291909152205460ff1690565b61070a6108cf565b6001600160a01b03811661073457604051631e4fbdf760e01b8152600060048201526024016103d5565b61073d816108fc565b50565b60006001600160e01b031982166380ac58cd60e01b148061077157506001600160e01b03198216635b5e139f60e01b145b806102df57506301ffc9a760e01b6001600160e01b03198316146102df565b6000818152600260205260408120546001600160a01b0316806102df57604051637e27328960e01b8152600481018490526024016103d5565b61045a8383836001610bf6565b6000828152600260205260408120546001600160a01b039081169083161561080357610803818486610cfc565b6001600160a01b0381161561084157610820600085600080610bf6565b6001600160a01b038116600090815260036020526040902080546000190190555b6001600160a01b03851615610870576001600160a01b0385166000908152600360205260409020805460010190555b60008481526002602052604080822080546001600160a01b0319166001600160a01b0389811691821790925591518793918516917fddf252ad1be2c89b69c2b068fc378daa952ba7f163c4a11628f55a4df523b3ef91a4949350505050565b6007546001600160a01b031633146105525760405163118cdaa760e01b81523360048201526024016103d5565b600780546001600160a01b038381166001600160a01b0319831681179093556040519116919082907f8be0079c531659141344cd1fd0a4f28419497f9722a3daafe3b4186f6b6457e090600090a35050565b6001600160a01b03821661098057604051630b61174360e31b81526001600160a01b03831660048201526024016103d5565b6001600160a01b03838116600081815260056020908152604080832094871680845294825291829020805460ff191686151590811790915591519182527f17307eab39ab6107e8899845ad3d59bd9653f200f220920489ca2b5937696c31910160405180910390a3505050565b6001600160a01b0383163b15610b1157604051630a85bd0160e11b81526001600160a01b0384169063150b7a0290610a2f908890889087908790600401611365565b6020604051808303816000875af1925050508015610a6a575060408051601f3d908101601f19168201909252610a67918101906113a2565b60015b610ad3573d808015610a98576040519150601f19603f3d011682016040523d82523d6000602084013e610a9d565b606091505b508051600003610acb57604051633250574960e11b81526001600160a01b03851660048201526024016103d5565b805181602001fd5b6001600160e01b03198116630a85bd0160e11b14610b0f57604051633250574960e11b81526001600160a01b03851660048201526024016103d5565b505b5050505050565b6060610b2382610790565b506000610b3b60408051602081019091526000815290565b90506000815111610b5b57604051806020016040528060008152506106cd565b80610b6584610d60565b604051602001610b7692919061130f565b6040516020818303038152906040529392505050565b6103ab828260405180602001604052806000815250610df3565b6000828152600660205260409020610bbe8282611406565b506040518281527ff8e1a15aba9398e019f0b49df1a4fde98ee17ae345cb5f6b5e2c27f5033e8ce79060200160405180910390a15050565b8080610c0a57506001600160a01b03821615155b15610ccc576000610c1a84610790565b90506001600160a01b03831615801590610c465750826001600160a01b0316816001600160a01b031614155b8015610c595750610c5781846106d4565b155b15610c825760405163a9fbf51f60e01b81526001600160a01b03841660048201526024016103d5565b8115610cca5783856001600160a01b0316826001600160a01b03167f8c5be1e5ebec7d5bd14f71427d1e84f3dd0314c0f7b2291e5b200ac8c7c3b92560405160405180910390a45b505b5050600090815260046020526040902080546001600160a01b0319166001600160a01b0392909216919091179055565b610d07838383610e0b565b61045a576001600160a01b038316610d3557604051637e27328960e01b8152600481018290526024016103d5565b60405163177e802f60e01b81526001600160a01b0383166004820152602481018290526044016103d5565b60606000610d6d83610e6e565b600101905060008167ffffffffffffffff811115610d8d57610d8d611134565b6040519080825280601f01601f191660200182016040528015610db7576020820181803683370190505b5090508181016020015b600019016f181899199a1a9b1b9c1cb0b131b232b360811b600a86061a8153600a8504945084610dc157509392505050565b610dfd8383610f46565b61045a3360008585856109ed565b60006001600160a01b0383161580159061068f5750826001600160a01b0316846001600160a01b03161480610e455750610e4584846106d4565b8061068f5750506000908152600460205260409020546001600160a01b03908116911614919050565b60008072184f03e93ff9f4daa797ed6e38ed64bf6a1f0160401b8310610ead5772184f03e93ff9f4daa797ed6e38ed64bf6a1f0160401b830492506040015b6d04ee2d6d415b85acef81000000008310610ed9576d04ee2d6d415b85acef8100000000830492506020015b662386f26fc100008310610ef757662386f26fc10000830492506010015b6305f5e1008310610f0f576305f5e100830492506008015b6127108310610f2357612710830492506004015b60648310610f35576064830492506002015b600a83106102df5760010192915050565b6001600160a01b038216610f7057604051633250574960e11b8152600060048201526024016103d5565b6000610f7e838360006107d6565b90506001600160a01b0381161561045a576040516339e3563760e11b8152600060048201526024016103d5565b6001600160e01b03198116811461073d57600080fd5b600060208284031215610fd357600080fd5b81356106cd81610fab565b60005b83811015610ff9578181015183820152602001610fe1565b50506000910152565b6000815180845261101a816020860160208601610fde565b601f01601f19169290920160200192915050565b6020815260006106cd6020830184611002565b60006020828403121561105357600080fd5b5035919050565b80356001600160a01b038116811461107157600080fd5b919050565b6000806040838503121561108957600080fd5b6110928361105a565b946020939093013593505050565b6000806000606084860312156110b557600080fd5b6110be8461105a565b92506110cc6020850161105a565b929592945050506040919091013590565b6000602082840312156110ef57600080fd5b6106cd8261105a565b6000806040838503121561110b57600080fd5b6111148361105a565b91506020830135801515811461112957600080fd5b809150509250929050565b634e487b7160e01b600052604160045260246000fd5b60008067ffffffffffffffff84111561116557611165611134565b50604051601f19601f85018116603f0116810181811067ffffffffffffffff8211171561119457611194611134565b6040528381529050808284018510156111ac57600080fd5b83836020830137600060208583010152509392505050565b600080600080608085870312156111da57600080fd5b6111e38561105a565b93506111f16020860161105a565b925060408501359150606085013567ffffffffffffffff81111561121457600080fd5b8501601f8101871361122557600080fd5b6112348782356020840161114a565b91505092959194509250565b6000806040838503121561125357600080fd5b61125c8361105a565b9150602083013567ffffffffffffffff81111561127857600080fd5b8301601f8101851361128957600080fd5b6112988582356020840161114a565b9150509250929050565b600080604083850312156112b557600080fd5b6112be8361105a565b91506112cc6020840161105a565b90509250929050565b600181811c908216806112e957607f821691505b60208210810361130957634e487b7160e01b600052602260045260246000fd5b50919050565b60008351611321818460208801610fde565b835190830190611335818360208801610fde565b01949350505050565b60006001820161135e57634e487b7160e01b600052601160045260246000fd5b5060010190565b6001600160a01b038581168252841660208201526040810183905260806060820181905260009061139890830184611002565b9695505050505050565b6000602082840312156113b457600080fd5b81516106cd81610fab565b601f82111561045a57806000526020600020601f840160051c810160208510156113e65750805b601f840160051c820191505b81811015610b1157600081556001016113f2565b815167ffffffffffffffff81111561142057611420611134565b6114348161142e84546112d5565b846113bf565b6020601f82116001811461146857600083156114505750848201515b600019600385901b1c1916600184901b178455610b11565b600084815260208120601f198516915b828110156114985787850151825560209485019460019092019101611478565b50848210156114b65786840151600019600387901b60f8161c191681555b50505050600190811b0190555056fea2646970667358221220d329e51f3a39dd1c8d907ffc7a7362987b158e01342889ce1051841b5833525c64736f6c634300081c0033a2646970667358221220ec48ebe13213a234758a269d398427335002a427394416ac185a8bd591b4c98864736f6c634300081c0033",
  "devdoc": {
    "errors": {
      "EnforcedPause()": [
        {
          "details": "The operation failed because the contract is paused."
        }
      ],
      "ExpectedPause()": [
        {
          "details": "The operation failed because the contract is not paused."
        }
      ],
      "OwnableInvalidOwner(address)": [
        {
          "details": "The owner is not a valid owner account. (eg. `address(0)`)"
        }
      ],
      "OwnableUnauthorizedAccount(address)": [
        {
          "details": "The caller account is not authorized to perform an operation."
        }
      ],
      "ReentrancyGuardReentrantCall()": [
        {
          "details": "Unauthorized reentrant call."
        }
      ]
    },
    "events": {
      "Paused(address)": {
        "details": "Emitted when the pause is triggered by `account`."
      },
      "Unpaused(address)": {
        "details": "Emitted when the pause is lifted by `account`."
      }
    },
    "kind": "dev",
    "methods": {
      "owner()": {
        "details": "Returns the address of the current owner."
      },
      "paused()": {
        "details": "Returns true if the contract is paused, and false otherwise."
      },
      "renounceOwnership()": {
        "details": "Leaves the contract without owner. It will not be possible to call `onlyOwner` functions. Can only be called by the current owner. NOTE: Renouncing ownership will leave the contract without an owner, thereby disabling any functionality that is only available to the owner."
      },
      "transferOwnership(address)": {
        "details": "Transfers ownership of the contract to a new account (`newOwner`). Can only be called by the current owner."
      }
    },
    "version": 1
  },
  "userdoc": {
    "kind": "user",
    "methods": {},
    "version": 1
  },
  "storageLayout": {
    "storage": [
      {
        "astId": 1849,
        "contract": "contracts/NFTMarketplace.sol:NFTMarketplace",
        "label": "_status",
        "offset": 0,
        "slot": "0",
        "type": "t_uint256"
      },
      {
        "astId": 1730,
        "contract": "contracts/NFTMarketplace.sol:NFTMarketplace",
        "label": "_paused",
        "offset": 0,
        "slot": "1",
        "type": "t_bool"
      },
      {
        "astId": 8,
        "contract": "contracts/NFTMarketplace.sol:NFTMarketplace",
        "label": "_owner",
        "offset": 1,
        "slot": "1",
        "type": "t_address"
      },
      {
        "astId": 5923,
        "contract": "contracts/NFTMarketplace.sol:NFTMarketplace",
        "label": "collections",
        "offset": 0,
        "slot": "2",
        "type": "t_mapping(t_address,t_struct(Collection)5890_storage)"
      },
      {
        "astId": 5926,
        "contract": "contracts/NFTMarketplace.sol:NFTMarketplace",
        "label": "collectionAddresses",
        "offset": 0,
        "slot": "3",
        "type": "t_array(t_address)dyn_storage"
      },
      {
        "astId": 5933,
        "contract": "contracts/NFTMarketplace.sol:NFTMarketplace",
        "label": "collectionToMarketItems",
        "offset": 0,
        "slot": "4",
        "type": "t_mapping(t_address,t_mapping(t_uint256,t_struct(MarketItem)5911_storage))"
      },
      {
        "astId": 5938,
        "contract": "contracts/NFTMarketplace.sol:NFTMarketplace",
        "label": "collectionTokenIds",
        "offset": 0,
        "slot": "5",
        "type": "t_mapping(t_address,t_array(t_uint256)dyn_storage)"
      },
      {
        "astId": 5946,
        "contract": "contracts/NFTMarketplace.sol:NFTMarketplace",
        "label": "pendingReturns",
        "offset": 0,
        "slot": "6",
        "type": "t_mapping(t_address,t_mapping(t_uint256,t_mapping(t_address,t_uint256)))"
      },
      {
        "astId": 5954,
        "contract": "contracts/NFTMarketplace.sol:NFTMarketplace",
        "label": "itemOffers",
        "offset": 0,
        "slot": "7",
        "type": "t_mapping(t_address,t_mapping(t_uint256,t_array(t_struct(Offer)5918_storage)dyn_storage))"
      },
      {
        "astId": 5957,
        "contract": "contracts/NFTMarketplace.sol:NFTMarketplace",
        "label": "listingFee",
        "offset": 0,
        "slot": "8",
        "type": "t_uint256"
      }
    ],
    "types": {
      "t_address": {
        "encoding": "inplace",
        "label": "address",
        "numberOfBytes": "20"
      },
      "t_array(t_address)dyn_storage": {
        "base": "t_address",
        "encoding": "dynamic_array",
        "label": "address[]",
        "numberOfBytes": "32"
      },
      "t_array(t_struct(Offer)5918_storage)dyn_storage": {
        "base": "t_struct(Offer)5918_storage",
        "encoding": "dynamic_array",
        "label": "struct NFTMarketplace.Offer[]",
        "numberOfBytes": "32"
      },
      "t_array(t_uint256)dyn_storage": {
        "base": "t_uint256",
        "encoding": "dynamic_array",
        "label": "uint256[]",
        "numberOfBytes": "32"
      },
      "t_bool": {
        "encoding": "inplace",
        "label": "bool",
        "numberOfBytes": "1"
      },
      "t_mapping(t_address,t_array(t_uint256)dyn_storage)": {
        "encoding": "mapping",
        "key": "t_address",
        "label": "mapping(address => uint256[])",
        "numberOfBytes": "32",
        "value": "t_array(t_uint256)dyn_storage"
      },
      "t_mapping(t_address,t_mapping(t_uint256,t_array(t_struct(Offer)5918_storage)dyn_storage))": {
        "encoding": "mapping",
        "key": "t_address",
        "label": "mapping(address => mapping(uint256 => struct NFTMarketplace.Offer[]))",
        "numberOfBytes": "32",
        "value": "t_mapping(t_uint256,t_array(t_struct(Offer)5918_storage)dyn_storage)"
      },
      "t_mapping(t_address,t_mapping(t_uint256,t_mapping(t_address,t_uint256)))": {
        "encoding": "mapping",
        "key": "t_address",
        "label": "mapping(address => mapping(uint256 => mapping(address => uint256)))",
        "numberOfBytes": "32",
        "value": "t_mapping(t_uint256,t_mapping(t_address,t_uint256))"
      },
      "t_mapping(t_address,t_mapping(t_uint256,t_struct(MarketItem)5911_storage))": {
        "encoding": "mapping",
        "key": "t_address",
        "label": "mapping(address => mapping(uint256 => struct NFTMarketplace.MarketItem))",
        "numberOfBytes": "32",
        "value": "t_mapping(t_uint256,t_struct(MarketItem)5911_storage)"
      },
      "t_mapping(t_address,t_struct(Collection)5890_storage)": {
        "encoding": "mapping",
        "key": "t_address",
        "label": "mapping(address => struct NFTMarketplace.Collection)",
        "numberOfBytes": "32",
        "value": "t_struct(Collection)5890_storage"
      },
      "t_mapping(t_address,t_uint256)": {
        "encoding": "mapping",
        "key": "t_address",
        "label": "mapping(address => uint256)",
        "numberOfBytes": "32",
        "value": "t_uint256"
      },
      "t_mapping(t_uint256,t_array(t_struct(Offer)5918_storage)dyn_storage)": {
        "encoding": "mapping",
        "key": "t_uint256",
        "label": "mapping(uint256 => struct NFTMarketplace.Offer[])",
        "numberOfBytes": "32",
        "value": "t_array(t_struct(Offer)5918_storage)dyn_storage"
      },
      "t_mapping(t_uint256,t_mapping(t_address,t_uint256))": {
        "encoding": "mapping",
        "key": "t_uint256",
        "label": "mapping(uint256 => mapping(address => uint256))",
        "numberOfBytes": "32",
        "value": "t_mapping(t_address,t_uint256)"
      },
      "t_mapping(t_uint256,t_struct(MarketItem)5911_storage)": {
        "encoding": "mapping",
        "key": "t_uint256",
        "label": "mapping(uint256 => struct NFTMarketplace.MarketItem)",
        "numberOfBytes": "32",
        "value": "t_struct(MarketItem)5911_storage"
      },
      "t_string_storage": {
        "encoding": "bytes",
        "label": "string",
        "numberOfBytes": "32"
      },
      "t_struct(Collection)5890_storage": {
        "encoding": "inplace",
        "label": "struct NFTMarketplace.Collection",
        "members": [
          {
            "astId": 5879,
            "contract": "contracts/NFTMarketplace.sol:NFTMarketplace",
            "label": "collectionAddress",
            "offset": 0,
            "slot": "0",
            "type": "t_address"
          },
          {
            "astId": 5881,
            "contract": "contracts/NFTMarketplace.sol:NFTMarketplace",
            "label": "name",
            "offset": 0,
            "slot": "1",
            "type": "t_string_storage"
          },
          {
            "astId": 5883,
            "contract": "contracts/NFTMarketplace.sol:NFTMarketplace",
            "label": "symbol",
            "offset": 0,
            "slot": "2",
            "type": "t_string_storage"
          },
          {
            "astId": 5885,
            "contract": "contracts/NFTMarketplace.sol:NFTMarketplace",
            "label": "owner",
            "offset": 0,
            "slot": "3",
            "type": "t_address"
          },
          {
            "astId": 5887,
            "contract": "contracts/NFTMarketplace.sol:NFTMarketplace",
            "label": "isActive",
            "offset": 20,
            "slot": "3",
            "type": "t_bool"
          },
          {
            "astId": 5889,
            "contract": "contracts/NFTMarketplace.sol:NFTMarketplace",
            "label": "createdAt",
            "offset": 0,
            "slot": "4",
            "type": "t_uint256"
          }
        ],
        "numberOfBytes": "160"
      },
      "t_struct(MarketItem)5911_storage": {
        "encoding": "inplace",
        "label": "struct NFTMarketplace.MarketItem",
        "members": [
          {
            "astId": 5892,
            "contract": "contracts/NFTMarketplace.sol:NFTMarketplace",
            "label": "tokenId",
            "offset": 0,
            "slot": "0",
            "type": "t_uint256"
          },
          {
            "astId": 5894,
            "contract": "contracts/NFTMarketplace.sol:NFTMarketplace",
            "label": "nftContract",
            "offset": 0,
            "slot": "1",
            "type": "t_address"
          },
          {
            "astId": 5896,
            "contract": "contracts/NFTMarketplace.sol:NFTMarketplace",
            "label": "seller",
            "offset": 0,
            "slot": "2",
            "type": "t_address"
          },
          {
            "astId": 5898,
            "contract": "contracts/NFTMarketplace.sol:NFTMarketplace",
            "label": "owner",
            "offset": 0,
            "slot": "3",
            "type": "t_address"
          },
          {
            "astId": 5900,
            "contract": "contracts/NFTMarketplace.sol:NFTMarketplace",
            "label": "price",
            "offset": 0,
            "slot": "4",
            "type": "t_uint256"
          },
          {
            "astId": 5902,
            "contract": "contracts/NFTMarketplace.sol:NFTMarketplace",
            "label": "isOnSale",
            "offset": 0,
            "slot": "5",
            "type": "t_bool"
          },
          {
            "astId": 5904,
            "contract": "contracts/NFTMarketplace.sol:NFTMarketplace",
            "label": "auctionEndTime",
            "offset": 0,
            "slot": "6",
            "type": "t_uint256"
          },
          {
            "astId": 5906,
            "contract": "contracts/NFTMarketplace.sol:NFTMarketplace",
            "label": "highestBidder",
            "offset": 0,
            "slot": "7",
            "type": "t_address"
          },
          {
            "astId": 5908,
            "contract": "contracts/NFTMarketplace.sol:NFTMarketplace",
            "label": "highestBid",
            "offset": 0,
            "slot": "8",
            "type": "t_uint256"
          },
          {
            "astId": 5910,
            "contract": "contracts/NFTMarketplace.sol:NFTMarketplace",
            "label": "isAuction",
            "offset": 0,
            "slot": "9",
            "type": "t_bool"
          }
        ],
        "numberOfBytes": "320"
      },
      "t_struct(Offer)5918_storage": {
        "encoding": "inplace",
        "label": "struct NFTMarketplace.Offer",
        "members": [
          {
            "astId": 5913,
            "contract": "contracts/NFTMarketplace.sol:NFTMarketplace",
            "label": "buyer",
            "offset": 0,
            "slot": "0",
            "type": "t_address"
          },
          {
            "astId": 5915,
            "contract": "contracts/NFTMarketplace.sol:NFTMarketplace",
            "label": "price",
            "offset": 0,
            "slot": "1",
            "type": "t_uint256"
          },
          {
            "astId": 5917,
            "contract": "contracts/NFTMarketplace.sol:NFTMarketplace",
            "label": "timestamp",
            "offset": 0,
            "slot": "2",
            "type": "t_uint256"
          }
        ],
        "numberOfBytes": "96"
      },
      "t_uint256": {
        "encoding": "inplace",
        "label": "uint256",
        "numberOfBytes": "32"
      }
    }
  }
}